:020000040800F2
:10000000780A0020CD0100084906000841060008D2
:1000100045060008A30200084F0E0008000000007B
:100020000000000000000000000000000F090008B0
:10003000A702000800000000D1060008F909000826
:10004000E7010008E7010008E7010008E7010008F0
:10005000E7010008E7010008E7010008E7010008E0
:10006000E7010008E7010008E7010008E7010008D0
:10007000E7010008E7010008E7010008E7010008C0
:10008000E7010008E7010008E7010008E7010008B0
:10009000E7010008E7010008E7010008E7010008A0
:1000A000E7010008E7010008E7010008E701000890
:1000B000E7010008E70100085D0A0008E701000801
:1000C000E7010008E7010008E7010008E701000870
:1000D000E7010008090C0008E7010008E701000833
:1000E000E1020008E7010008E7010008E701000855
:1000F000E7010008E7010008E7010008E701000840
:10010000E7010008E7010008E7010008E70100082F
:10011000E7010008E7010008E7010008E70100081F
:10012000E7010008E7010008E7010008E70100080F
:1001300000F002F800F03AF80AA090E8000C8244BF
:100140008344AAF10107DA4501D100F02FF8AFF29C
:10015000090EBAE80F0013F0010F18BFFB1A43F0A5
:10016000010318471018000030180000103A24BF8F
:1001700078C878C1FAD8520724BF30C830C144BF0C
:1001800004680C607047000000230024002500264E
:10019000103A28BF78C1FBD8520728BF30C148BFEA
:1001A0000B6070471FB51FBD10B510BD00F043F8C0
:1001B0001146FFF7F7FF01F060F800F061F803B4B3
:1001C000FFF7F2FF03BC00F065F800000948804724
:1001D00009480047FEE7FEE7FEE7FEE7FEE7FEE729
:1001E000FEE7FEE7FEE7FEE704480549054A064B41
:1001F00070470000FD090008310100087804002064
:10020000780A0020780600207806002030B50546E0
:100210000B462A4613F8014B12F8010B08B1A04215
:10022000F8D01CB1002802D06D1CF1E7284630BD83
:10023000704770477047754600F028F8AE460500D5
:100240006946534620F00700854618B020B5FFF7F1
:10025000CBFFBDE820404FF000064FF000074FF005
:1002600000084FF0000B21F00701AC46ACE8C009D4
:10027000ACE8C009ACE8C009ACE8C0098D467047DD
:100280000446AFF300802046FFF799FF004870470F
:100290001804002001491820ABBEFEE7260002002A
:1002A000704700BFFEE7704710B5044600BF02214B
:1002B0000A4800F0F1FA0028F9D02146074800F07A
:1002C000F7FA00BF0121054800F0E6FA0028F9D04E
:1002D000024800F0EAFAC0B210BD00000038004049
:1002E00030B5B7B04FF4805000F054F8012827D152
:1002F000002405E0FF20FFF7D7FF01A90855641C83
:100300001B2CF7DB80211E4800F098F94FF4807118
:100310001C4800F091F9002407E0FF20FFF7C4FF1C
:1003200001AA04F11B015054641C1B2CF5DB4FF493
:100330008071144800F082F98021114800F07CF9A6
:100340000025FF2001F002FAFF2001F0FFF9012053
:1003500001F0FCF9002408E001A9085D01F0F6F9BC
:1003600001A8005D2844C5B2641C362CF4DB284685
:1003700001F0ECF94FF4805000F006F837B030BDD2
:10038000001001400008014001490860704700006A
:1003900014040140014600200022074B1B6803EAB9
:1003A0000102054B14331B680B4013B10AB1012045
:1003B00000E00020704700000004014000212349B4
:1003C0008279002A3AD00A46126803689A430B469B
:1003D0001A600A1D126803689A430B1D1A6002799D
:1003E00011440A6803681A430A60184A08321268FE
:1003F00003689A43154B08331A601A1D1268036884
:100400009A43124B0C331A604279102A0ED11A1FEC
:10041000126803681A430D4B08331A601A1D1268DC
:1004200003681A43094B0C331A600DE007494279FF
:1004300011440A6803681A430A6005E0027911440E
:100440000A6803689A430A6070470000000401408C
:1004500030B500228B071C0F0F2303FA04F20B4B5D
:100460008C1053F824309343084C8D1044F82530F9
:1004700023468C1053F824308C07240F00FA04F420
:100480002343024C8D1044F8253030BD0800014054
:100490002DE9F0410246002500260020002300241B
:1004A000002791F803C00CF00F0591F803C00CF081
:1004B000100CBCF1000F03D091F802C04CEA050506
:1004C00091F800C0BCF1000F31D0146800202BE07F
:1004D0004FF0010C0CFA00F3B1F800C00CEA03066F
:1004E0009E4220D183004FF00F0C0CFA03F7BC435F
:1004F00005FA03FC4CEA040491F803C0BCF1280F90
:1005000006D14FF0010C0CFA00FCC2F814C00AE04E
:1005100091F803C0BCF1480F05D14FF0010C0CFA63
:1005200000FCC2F810C0401C0828D1D31460B1F8F8
:1005300000C0BCF1FF0F34DD546800202EE000F154
:10054000080C4FF0010808FA0CF3B1F800C00CEAEF
:1005500003069E4221D183004FF00F0C0CFA03F7E3
:10056000BC4305FA03FC4CEA040491F803C0BCF157
:10057000280F05D100F1080C08FA0CF8C2F8148015
:1005800091F803C0BCF1480F07D100F1080C4FF0FF
:10059000010808FA0CF8C2F81080401C0828CED3D5
:1005A0005460BDE8F0810000F0B50A460023002445
:1005B0000021002500F00046B6F1004F02D11D4E8B
:1005C000F16901E01B4E7168C0F3034583B200F48A
:1005D0004016B6F5401F08D121F07061154E7668BF
:1005E00026F07066134F7E6012E000F48016B6F5B8
:1005F000801F06D1032606FA05F4A14341F070617D
:1006000006E0460D360103FA06F6B14341F070618B
:1006100022B1460D360103FA06F6314300F00046DA
:10062000B6F1004F02D1034EF16101E0014E71605D
:10063000F0BD00000000014041617047016170475A
:1006400000BFFEE700BFFEE77047000070B5002165
:1006500000230F22C47804B3154C246804F4E0642A
:10066000C4F5E064210AC1F10403CA40447804FAE5
:1006700003F184781440214309010E4C0678A155FA
:10068000047804F01F050124AC4005786D11AD001D
:1006900005F1E025C5F8004109E0047804F01F05E4
:1006A0000124AC40044D0678761145F8264070BD13
:1006B0000CED00E000E400E080E100E002490143CD
:1006C000024A1160704700000000FA050CED00E0DE
:1006D0007047000029B1064AD2690243044BDA612F
:1006E00004E0034AD2698243014BDA61704700009B
:1006F0000010024029B1064A12690243044B1A61F4
:1007000004E0034A12698243014B1A6170470000FA
:100710000010024029B1064A92690243044B9A61D3
:1007200004E0034A92698243014B9A6170470000DA
:100730000010024029B1064AD2680243044BDA6035
:1007400004E0034AD2688243014BDA60704700003C
:100750000010024030B500210022002400232D4D5E
:100760006D6805F00C0121B1042905D0082923D1B9
:1007700005E0294D056022E0274D05601FE0254D6D
:100780006D6805F47012234D6D6805F48034022500
:1007900005EB92421CB9214D554305600BE01D4D00
:1007A0006D6805F400351DB11C4D5543056002E030
:1007B000194D5543056002E0174D056000BF00BFAD
:1007C000144D6D6805F0F0010909154D6B5C056865
:1007D000DD4045600F4D6D6805F4E061090A104D7C
:1007E0006B5C4568DD4085600A4D6D6805F46051BD
:1007F000C90A0B4D6B5C4568DD40C560054D6D68F1
:1008000005F44041890B074D6B5CC568B5FBF3F5FA
:10081000056130BD0010024000127A0000093D0061
:10082000040000201400002021B1028842F04002A0
:10083000028004E002884FF6BF731A4002807047BE
:1008400010B504461148844208D101218014FFF7F5
:1008500071FF0021A014FFF76DFF16E00C488442E1
:1008600008D101210014FFF745FF00212014FFF7F4
:1008700041FF0AE00748844207D10121C013FFF776
:1008800039FF0021E013FFF735FF10BD00300140B4
:1008900000380040003C00400246002013890B4015
:1008A0000BB1012000E000207047014688897047A5
:1008B0008181704710B50022028802F441520B88F2
:1008C0004C8823438C882343CC8823430C892343BF
:1008D0004C8923438C892343CC8923431A430280C8
:1008E000838B4FF2FF74234083830B8A038210BDF6
:1008F0004FF6FF62914204D0028842F48072028077
:1009000004E002884FF6FF631A4002807047704788
:1009100010B500F001F810BD0CB50020019000905A
:100920003348006840F480303149086000BF3048E7
:10093000006800F4003000900198401C019000987D
:1009400018B90198B0F5A06FF1D12948006800F4FA
:10095000003010B10120009001E0002000900098CC
:10096000012843D12348006840F010002149086065
:100970000846006820F0030008600846006840F060
:10098000020008601A4840681949486008464068F3
:1009900048600846406840F4806048600846406807
:1009A00020F47C1048600846406840F4E810486035
:1009B0000846006840F08070086000BF0C4800687E
:1009C00000F000700028F9D00948406820F00300CA
:1009D000074948600846406840F00200486000BF90
:1009E0000348406800F00C000828F9D10CBD000055
:1009F00000100240002002407047000010B513486C
:100A0000006840F00100114908600846406810493C
:100A100008400E494860084600680E4908400B49E6
:100A200008600846006820F4802008600846406896
:100A300020F4FE0048604FF41F008860FFF768FF55
:100A40004FF000600449086010BD00000010024033
:100A50000000FFF8FFFFF6FE08ED00E010B50121F1
:100A6000084800F062F860B10748008840F4004090
:100A7000054908800121034800F048F8002000F0F3
:100A800031F810BD00080040020000207FB5054687
:100A90000C4601210420FFF71DFEADF80450ADF80F
:100AA00000400020ADF80600ADF8020069460C4891
:100AB00000F058F801221146094800F047F81E20BE
:100AC0008DF80C0001208DF80D0002208DF80E002D
:100AD00001208DF80F0003A8FFF7B8FD7FBD0000CF
:100AE0000008004010B5044644B10021064800F05B
:100AF00036F80121044800F00CF803E00021024818
:100B000000F007F810BD000000080040CA43028250
:100B1000704721B1028842F00102028004E002889D
:100B20004FF6FE731A400280704730B5024600202F
:100B300000230024158A05EA0103958905EA0104CA
:100B400013B10CB1012000E0002030BD1AB183893F
:100B50000B43838102E083898B43838170478184C7
:100B600070470000002202881D4B98420ED01D4B9A
:100B700098420BD0B0F1804F08D01B4B984205D063
:100B80001A4B984202D01A4B984204D14FF68F73F9
:100B90001A404B881A43174B984207D0164B98427D
:100BA00004D04FF6FF431A40CB881A4302808B884B
:100BB00083850B8803850A4B98420BD0094B9842DA
:100BC00008D00E4B984205D00D4B984202D00D4BE9
:100BD000984201D10B7A038601238382704700007B
:100BE000002C014000340140000400400008004097
:100BF000000C004000100040001400400040014084
:100C0000004401400048014010B540F2255117480A
:100C100000F058F8012828D1144800F00FF9C4B2A8
:100C20001348007818B1204600F036FB1DE011484B
:100C30000088B0F5806F12DA00210F48FFF78FFFB0
:100C40000C48008810B90120FFF74CFF09480188C3
:100C50000088401C074A10800848445405E00548B5
:100C6000008840F400400349088010BD003801406E
:100C700000000020020000200008004018000020B2
:100C800001F40072B2F5007F00D100BFCA430280B8
:100C9000704721B1828942F40052828104E0828946
:100CA0004DF6FF731A408281704702460020B1F56D
:100CB000007F00D100BF13880B400BB1012000E082
:100CC0000020704770B50246002400230025002054
:100CD00040F66A16B14200D100BFC1F3421501F0DF
:100CE0001F03012606FA03F3012D02D19689334032
:100CF00006E0022D02D1168A334001E0968A334085
:100D00000C12012606FA04F41688344013B10CB113
:100D1000012000E0002070BDF0B50346002400264D
:100D20000025002040F66A17B94200D100BF1846DE
:100D3000C1F3421401F01F06012707FA06F5012C42
:100D400001D10C3004E0022C01D1103000E014304D
:100D50001AB107682F43076002E00768AF430760D6
:100D6000F0BD00002DE9F04786B005460E46002490
:100D7000A24600BFA1460027B08900B100BF2F46A0
:100D80002C8A4CF6FF700440F08804432C82AC8916
:100D90004EF6F3100440B088318908437189084346
:100DA0000443AC81AC8A4FF6FF400440B089044351
:100DB000AC8201A8FFF7CEFC1F48874202D1DDF8C4
:100DC00010A001E0DDF80CA0A88900F4004040B1BB
:100DD0000AEBCA0000EB0A1031684900B0FBF1F8D9
:100DE00007E00AEBCA0000EB0A1031688900B0FB8B
:100DF000F1F86420B8FBF0F004012009642101FB44
:100E00001089A88900F4004040B1322000EBC900ED
:100E1000B0FBF1F000F00700044308E0322000EBE3
:100E200009106421B0FBF1F000F00F0004432C81A5
:100E300006B0BDE8F0870000003801400146888810
:100E4000C0F308007047C1F308028280704700BFFA
:100E5000FEE7000000B587B001211D20FFF75AFC16
:100E600001218803FFF736FC01215148FFF79CFB65
:100E700048208DF81B000420ADF8180006A94D4845
:100E8000FFF706FB48208DF81B004FF48050ADF8AB
:100E9000180006A94848FFF7FBFA18208DF81B0038
:100EA0004FF46040ADF8180003208DF81A0006A931
:100EB0004048FFF7EDFA4FF460413E48FFF7BEFBB4
:100EC0003E48FFF7BDFC0020ADF804004FF48270EF
:100ED000ADF806000020ADF80800ADF80A000120CA
:100EE000ADF80C004002ADF80E003820ADF810004F
:100EF0000020ADF812000720ADF8140001A92F481A
:100F0000FFF7D8FC4FF480712C48FFF7F1FC01216A
:100F10002A48FFF789FC10208DF81B004FF47070F1
:100F2000ADF8180003208DF81A0006A92448FFF731
:100F3000AFFA10208DF81B000002ADF81800032056
:100F40008DF81A0006A91B48FFF7A2FA10208DF8A9
:100F50001B004FF41060ADF8180003208DF81A0044
:100F600006A91548FFF794FA40211548FFF766FBDC
:100F70004FF400711248FFF761FB4FF48071104885
:100F8000FFF75AFB4FF400610B48FFF757FB4FF494
:100F900080510848FFF752FB80210948FFF74EFBBC
:100FA0004FF480710448FFF749FB07B000BD000013
:100FB00000023000000C01400008014000380040F1
:100FC00000100140012012490870FFF743FF802202
:100FD0001049002000F055FA4FF480720E490120AC
:100FE00000F04FFA4FF480510C48FFF725FB6420C6
:100FF00000F00BF98021074800F0BBF84FF4807136
:10100000054800F0B6F800F051F800BFFEE7000018
:10101000000000200010014000080140000C0140C9
:1010200070B5044600250948008800F4004058B116
:10103000002006490988C1F30E01054A5054214693
:101040001046FFF7E3F80546284670BD0200002071
:10105000180000202DE9F04106460D4614460027F1
:10106000002011490880304600F080FBC5B1BCB1BA
:101070000FE00A2000F0E5F80B48008800F400407B
:1010800038B12846FFF7CCFF00B106E00020064942
:101090000880601E80B20400EBD100BF04B90127B4
:1010A0003846BDE8F0810000020000200EB528207F
:1010B0008DF8000001208DF801008DF802008DF8F8
:1010C00003006846FFF7C2FA0C210020FFF7C0F9C1
:1010D0004FF48050019000208DF808000C208DF80E
:1010E000090001208DF80A0001A8FFF767F94FF405
:1010F00080720C49102000F001FC80220A49102067
:1011000000F0FCFB052000F080F84FF480710648E9
:10111000FFF794FA012000F078F880210248FFF7E9
:101120008BFA0EBD0008014000100140F8B50646DC
:101130000D463346052200210220009500F078FA82
:10114000074617B14FF0FF30F8BD05240DE03346D8
:10115000052201212046009500F06AFA074617B1E2
:101160004FF0FF30F0E7601CC4B20C2CEFDD002024
:10117000EAE7F8B506460D4633460522002102206F
:10118000009500F055FA074617B14FF0FF30F8BD53
:1011900005240DE03346052200212046009500F08D
:1011A00047FA074617B14FF0FF30F0E7601CC4B2B2
:1011B0000C2CEFDD0020EAE72DE9F84306460D464A
:1011C0004FF0FF374FF0010833460522102102206F
:1011D000009500F02DFA07461FB14FF0FF30BDE833
:1011E000F88305240DE0334605221146204600957C
:1011F00000F01EFA074617B14FF0FF30EFE7601C12
:10120000C4B20C2CEFDD0020E9E7014642F228329F
:101210004A434FF0E0235A6101221A6100229A6189
:1012200000BF4FF0E022106900F001021AB100F493
:101230008032002AF5D000224FF0E0231A619A6133
:101240007047014642F228324A434FF0E0235A6188
:1012500001221A6100229A6100BF4FF0E02210695A
:1012600000F001021AB100F48032002AF5D0002209
:101270004FF0E0231A619A617047FFF7BFFB4FF40C
:10128000612000F0F7F900F0B7F900F07DFA00F006
:10129000C7F9FFF797FE000070B50646072E3CD24F
:1012A000DFE806F0CC043C6084A8BA004FF480511B
:1012B0006348FFF7C3F94FF4FA70FFF7A6FF8022E7
:1012C0006049002000F0DDF805464FF480725E4969
:1012D000012000F0D6F804464FF480515848FFF73B
:1012E000ABF94FF4FA70FFF790FFFF2000F02EFAF1
:1012F000FF2000F02BFA032000F028FA3DB934B9A2
:10130000FF2000F023FAFF2000F020FA05E0EE2095
:1013100000F01CFAEE2000F019FA8FE08021494815
:10132000FFF74AFF05464FF480714748FFF744FF37
:101330000446FF2000F00AFAFF2000F007FA03201D
:1013400000F004FA3DB934B9FF2000F0FFF9FF20A6
:1013500000F0FCF905E0EE2000F0F8F9EE2000F0D6
:10136000F5F96BE080213748FFF7E0FE05464FF4C2
:1013700080713548FFF7DAFE0446FF2000F0E6F9F9
:10138000FF2000F0E3F9032000F0E0F93DB934B9A3
:10139000FF2000F0DBF9FF2000F0D8F905E0EE2097
:1013A00000F0D4F9EE2000F0D1F947E08021254883
:1013B000FFF7DFFE05464FF480712348FFF7D9FEA3
:1013C0000446FF2000F0C2F9FF2000F0BFF903201F
:1013D00000F0BCF93DB934B9FF2000F0B7F9FF20A7
:1013E00000F0B4F905E0EE2000F0B0F9EE2000F0D6
:1013F000ADF923E0FFF75AFEFF2000F0A7F9FF2028
:1014000000F0A4F9032000F0A1F9FF2000F09EF9FC
:10141000FF2000F09BF911E000F0D2F8FF2000F06F
:1014200095F9FF2000F092F9032000F08FF9FF20DA
:1014300000F08CF9FF2000F089F900BF00BF70BDFB
:10144000000C014000100140000801402DE9F0416E
:1014500004460D46164631462846FFF7EDF844F09F
:101460002000FEF721FF0020FEF71EFFFF20FEF701
:101470001BFF074631462846FFF7E0F83846BDE82F
:10148000F0812DE9F84381460F4614464FF00008DD
:1014900021E022463946112000F030FA0A20FFF7F9
:1014A000B4FE22463946062000F028FA4FF4FA70BE
:1014B000FFF7ABFE22463946112000F01FFA214605
:1014C000384600F072F8922800D107E00A20FFF7B2
:1014D0009CFE08F10108B8F1050FDADB00BFB8F196
:1014E000050F03D14FF0FF30BDE8F8833B460522DE
:1014F000C0210320009400F09BF8054615B14FF081
:10150000FF30F1E76420FFF780FEB9F1000F08D14A
:101510003B46052226210120009400F089F805466B
:1015200007E03B46052206210120009400F080F8E8
:10153000054615B14FF0FF30D6E73B4605220021A6
:101540000220009400F074F8054615B14FF0FF300A
:10155000CAE705260DE03B460522012130460094EE
:1015600000F066F8054615B14FF0FF30BCE7701C7F
:10157000C6B20C2EEFDD3B460522FF210D20009464
:1015800000F056F8054615B14FF0FF30ACE73B468A
:101590000522FF210E20009400F04AF8054615B1FF
:1015A0004FF0FF30A0E700209EE770B504460D46DF
:1015B0002A4621460020FFF749FF0646304670BD07
:1015C00010B54FF480710A48FFF736F880210848BB
:1015D000FFF734F84FF480720649112000F08EF9BD
:1015E00080220349112000F089F9002010BD00007D
:1015F000001001400008014008B501210420FFF758
:1016000089F810208DF80300ADF8000003208DF854
:10161000020069460148FEF73BFF08BD0008014093
:1016200010B510210148FFF709F810BD000801406E
:101630002DE9F0478046894614461F46DDF820A074
:1016400000250CE053463A464946404600F069F909
:10165000064606B905E00A20FFF7D7FD6D1CA54236
:10166000F0DB00BFA54203D14FF0FF30BDE8F087AB
:101670000020FBE710B586B0044601210420FFF7E7
:1016800049F801210846FFF745F801218803FFF7D3
:1016900041F803208DF816004FF40070ADF81400E7
:1016A00018208DF8170005A92648FEF7F1FE4FF423
:1016B0008060ADF8140004208DF8170005A92148BA
:1016C000FEF7E6FE01940020ADF80800ADF80A0030
:1016D000ADF80C00ADF810000C20ADF80E0001A91B
:1016E0001948FFF73FFB4FF4C060FEF7E7FF2520E6
:1016F0008DF8000004208DF8010001208DF8020013
:101700008DF803006846FEF7A1FF012240F2255143
:101710000D48FFF701FB40210B48FFF7B1FA2021EC
:101720000948FFF7ADFA01210748FFF7B2FA41F681
:101730001F4140F2E730FFF7A9F90020FFF7D2F987
:1017400006B010BD000801400038014010B5044645
:1017500021460548FFF777FB00BF40210248FFF70D
:10176000A4FA0128F9D110BD0038014070B5044633
:10177000002505E029466A1C95B2605CFFF7E6FF8C
:10178000605D0028F6D170BD10B5C822002124A0EC
:10179000FFF760FC642223A123A0FFF75BFC98B154
:1017A0004FF4E130FFF766FF4FF4FA721DA120A05D
:1017B000FFF750FC4FF47A7225A127A0FFF74AFCEF
:1017C0004FF46120FFF756FF4FF4FA7220A122A0D8
:1017D000FFF740FC4FF4FA7212A122A0FFF73AFC87
:1017E0004FF4FA620FA123A0FFF734FC4FF4FA7212
:1017F0000CA12BA0FFF72EFC4FF4FA6209A12CA03C
:10180000FFF728FC4FF4FA7206A133A0FFF722FC81
:101810004FF4FA7234A135A0FFF71CFC10BD000094
:101820002B2B2B004F4B000041540D0A00000000F1
:1018300041542B554152545F4445463D393231366F
:1018400030302C382C312C302C300D0A00000000A8
:10185000726561647900000041542B5253540D0AA3
:101860000000000041542B43574D4F44453D310D7E
:101870000A00000041542B43574A41505F435552E0
:101880003D224841524C61623630345F3247222C4F
:10189000224841524C616236303421220D0A000048
:1018A00041542B4349504D55583D300D0A0000001E
:1018B00041542B43495053544152543D22544350B8
:1018C000222C223139322E3136382E312E38302228
:1018D0002C383038340D0A0041542B4349504D4FB9
:1018E00044453D310D0A00003E00000041542B43A9
:1018F000495053454E440D0A0000000070B506469D
:101900000C46154629462046FEF796FE3046FEF761
:10191000CBFC0020FEF7C8FC29462046FEF78EFED1
:1019200070BD2DE9F04107460C4615461E4631466E
:101930002846FEF781FE47F04000FEF7B5FC002088
:10194000FEF7B2FC2046FEF7AFFC31462846FEF714
:1019500075FE0120FFF759FC324629463846FFF74D
:1019600075FDA04202D10020BDE8F0814FF0FF30AC
:10197000FAE7000094190008000000201800000099
:101980006C010008AC19000818000020600A000073
:1019900088010008000000000000000001020304AC
:0C19A000010203040607080902040608FF
:04000005080001CD21
:00000001FF
