:020000040800F2
:10000000780A0020CD0100085106000849060008C2
:100010004D060008AB020008570E00080000000063
:1000200000000000000000000000000017090008A8
:10003000AF02000800000000D9060008010A00080D
:10004000E7010008E7010008E7010008E7010008F0
:10005000E7010008E7010008E7010008E7010008E0
:10006000E7010008E7010008E7010008E7010008D0
:10007000E7010008E7010008E7010008E7010008C0
:10008000E7010008E7010008E7010008E7010008B0
:10009000E7010008E7010008E7010008E7010008A0
:1000A000E7010008E7010008E7010008E701000890
:1000B000E7010008E7010008650A0008E7010008F9
:1000C000E7010008E7010008E7010008E701000870
:1000D000E7010008110C0008E7010008E70100082B
:1000E000E9020008E7010008E7010008E70100084D
:1000F000E7010008E7010008E7010008E701000840
:10010000E7010008E7010008E7010008E70100082F
:10011000E7010008E7010008E7010008E70100081F
:10012000E7010008E7010008E7010008E70100080F
:1001300000F002F800F03AF80AA090E8000C8244BF
:100140008344AAF10107DA4501D100F02FF8AFF29C
:10015000090EBAE80F0013F0010F18BFFB1A43F0A5
:1001600001031847C0170000E0170000103A24BF31
:1001700078C878C1FAD8520724BF30C830C144BF0C
:1001800004680C607047000000230024002500264E
:10019000103A28BF78C1FBD8520728BF30C148BFEA
:1001A0000B6070471FB51FBD10B510BD00F043F8C0
:1001B0001146FFF7F7FF01F033F800F061F803B4E0
:1001C000FFF7F2FF03BC00F069F800000948804720
:1001D00009480047FEE7FEE7FEE7FEE7FEE7FEE729
:1001E000FEE7FEE7FEE7FEE704480549054A064B41
:1001F00070470000050A000831010008780400205B
:10020000780A0020780600207806002030B50546E0
:100210000B462A4613F8014B12F8010B08B1A04215
:10022000F8D01CB1002802D06D1CF1E7284630BD83
:10023000704770477047754600F02CF8AE460500D1
:100240006946534620F00700854618B020B5FFF7F1
:10025000CBFFBDE820404FF000064FF000074FF005
:1002600000084FF0000B21F00701AC46ACE8C009D4
:10027000ACE8C009ACE8C009ACE8C0098D467047DD
:1002800010B50446AFF300802046BDE81040FFF7EC
:1002900096BF00000048704718040020014918204C
:1002A000ABBEFEE726000200704700BFFEE77047C6
:1002B00010B5044600BF02210A4800F0F1FA0028F8
:1002C000F9D02146074800F0F7FA00BF01210548A0
:1002D00000F0E6FA0028F9D0024800F0EAFAC0B2CD
:1002E00010BD00000038004030B5B7B04FF480506A
:1002F00000F054F8012841D1002405E0FF20FFF769
:10030000D7FF01A90855641C1B2CF7DB80211E4870
:1003100000F098F94FF480711C4800F091F9002426
:1003200007E0FF20FFF7C4FF01AA04F11B015054AE
:10033000641C1B2CF5DB4FF48071144800F082F92B
:100340008021114800F07CF90025FF2001F090FA8F
:10035000FF2001F08DFA012001F08AFA002408E064
:1003600001A9085D01F084FA01A8005D2844C5B226
:10037000641C362CF4DB284601F07AFA4FF48050E6
:1003800000F006F837B030BD001001400008014011
:100390000149086070470000140401400146002034
:1003A0000022074B1B6803EA0102054B14331B684C
:1003B0000B4013B10AB1012000E00020704700009B
:1003C00000040140002123498279002A3AD00A46DC
:1003D000126803689A430B461A600A1D1268036884
:1003E0009A430B1D1A60027911440A6803681A4384
:1003F0000A60184A0832126803689A43154B08339A
:100400001A601A1D126803689A43124B0C331A6063
:100410004279102A0ED11A1F126803681A430D4B35
:1004200008331A601A1D126803681A43094B0C330B
:100430001A600DE00749427911440A6803681A43BB
:100440000A6005E0027911440A6803689A430A6069
:10045000704700000004014030B500228B071C0FDC
:100460000F2303FA04F20B4B8C1053F82430934300
:10047000084C8D1044F8253023468C1053F8243056
:100480008C07240F00FA04F42343024C8D1044F827
:10049000253030BD080001402DE9F041024600251D
:1004A0000026002000230024002791F803C00CF050
:1004B0000F0591F803C00CF0100CBCF1000F03D035
:1004C00091F802C04CEA050591F800C0BCF1000F9C
:1004D00031D0146800202BE04FF0010C0CFA00F32F
:1004E000B1F800C00CEA03069E4220D183004FF011
:1004F0000F0C0CFA03F7BC4305FA03FC4CEA0404A6
:1005000091F803C0BCF1280F06D14FF0010C0CFA92
:1005100000FCC2F814C00AE091F803C0BCF1480F17
:1005200005D14FF0010C0CFA00FCC2F810C0401CC1
:100530000828D1D31460B1F800C0BCF1FF0F34DD3E
:10054000546800202EE000F1080C4FF0010808FA72
:100550000CF3B1F800C00CEA03069E4221D18300DF
:100560004FF00F0C0CFA03F7BC4305FA03FC4CEAFE
:10057000040491F803C0BCF1280F05D100F1080C68
:1005800008FA0CF8C2F8148091F803C0BCF1480FC7
:1005900007D100F1080C4FF0010808FA0CF8C2F876
:1005A0001080401C0828CED35460BDE8F0810000C4
:1005B000F0B50A46002300240021002500F0004683
:1005C000B6F1004F02D11D4EF16901E01B4E71687A
:1005D000C0F3034583B200F44016B6F5401F08D1BE
:1005E00021F07061154E766826F07066134F7E60BC
:1005F00012E000F48016B6F5801F06D1032606FA35
:1006000005F4A14341F0706106E0460D360103FA9E
:1006100006F6B14341F0706122B1460D360103FA8E
:1006200006F6314300F00046B6F1004F02D1034E0A
:10063000F16101E0014E7160F0BD00000000014079
:10064000416170470161704700BFFEE700BFFEE7F0
:100650007047000070B5002100230F22C47804B356
:10066000154C246804F4E064C4F5E064210AC1F187
:100670000403CA40447804FA03F184781440214307
:1006800009010E4C0678A155047804F01F050124D9
:10069000AC4005786D11AD0005F1E025C5F80041CD
:1006A00009E0047804F01F050124AC40044D0678ED
:1006B000761145F8264070BD0CED00E000E400E046
:1006C00080E100E002490143024A116070470000E6
:1006D0000000FA050CED00E07047000029B1064A61
:1006E000D2690243044BDA6104E0034AD2698243CF
:1006F000014BDA61704700000010024029B1064A40
:1007000012690243044B1A6104E0034A12698243EE
:10071000014B1A61704700000010024029B1064ADF
:1007200092690243044B9A6104E0034A926982434E
:10073000014B9A61704700000010024029B1064A3F
:10074000D2680243044BDA6004E0034AD268824371
:10075000014BDA60704700000010024030B5002104
:100760000022002400232D4D6D6805F00C0121B1FD
:10077000042905D0082923D105E0294D056022E090
:10078000274D05601FE0254D6D6805F47012234D5F
:100790006D6805F48034022505EB92421CB9214DA9
:1007A000554305600BE01D4D6D6805F400351DB126
:1007B0001C4D5543056002E0194D5543056002E0AC
:1007C000174D056000BF00BF144D6D6805F0F001C6
:1007D0000909154D6B5C0568DD4045600F4D6D687E
:1007E00005F4E061090A104D6B5C4568DD408560E9
:1007F0000A4D6D6805F46051C90A0B4D6B5C456884
:10080000DD40C560054D6D6805F44041890B074D1D
:100810006B5CC568B5FBF3F5056130BD00100240A7
:1008200000127A0000093D0004000020140000209E
:1008300021B1028842F04002028004E002884FF6B3
:10084000BF731A400280704710B5044611488442B5
:1008500008D101218014FFF771FF0021A014FFF7D8
:100860006DFF16E00C48844208D101210014FFF707
:1008700045FF00212014FFF741FF0AE007488442AA
:1008800007D10121C013FFF739FF0021E013FFF763
:1008900035FF10BD0030014000380040003C0040F2
:1008A0000246002013890B400BB1012000E000201C
:1008B00070470146888970478181704710B50022D2
:1008C000028802F441520B884C8823438C882343CE
:1008D000CC8823430C8923434C8923438C892343AD
:1008E000CC8923431A430280838B4FF2FF74234049
:1008F00083830B8A038210BD4FF6FF62914204D0BE
:10090000028842F48072028004E002884FF6FF639E
:100910001A4002807047704710B500F001F810BD12
:100920000CB50020019000903348006840F48030FE
:100930003149086000BF3048006800F40030009082
:100940000198401C0190009818B90198B0F5A06F6B
:10095000F1D12948006800F4003010B10120009066
:1009600001E0002000900098012843D1234800684E
:1009700040F01000214908600846006820F003009C
:1009800008600846006840F0020008601A484068A5
:10099000194948600846406848600846406840F485
:1009A000806048600846406820F47C104860084633
:1009B000406840F4E81048600846006840F08070E5
:1009C000086000BF0C48006800F000700028F9D0F3
:1009D0000948406820F0030007494860084640681D
:1009E00040F00200486000BF0348406800F00C007F
:1009F0000828F9D10CBD0000001002400020024080
:100A00007047000010B51348006840F0010011491C
:100A1000086008464068104908400E49486008468A
:100A200000680E4908400B4908600846006820F439
:100A3000802008600846406820F4FE0048604FF4BB
:100A40001F008860FFF768FF4FF0006004490860EE
:100A500010BD0000001002400000FFF8FFFFF6FE8E
:100A600008ED00E010B50121084800F062F860B11F
:100A70000748008840F400400549088001210348E8
:100A800000F048F8002000F031F810BD00080040E8
:100A9000020000207FB505460C4601210420FFF727
:100AA0001DFEADF80450ADF800400020ADF8060082
:100AB000ADF8020069460C4800F058F801221146D2
:100AC000094800F047F81E208DF80C0001208DF831
:100AD0000D0002208DF80E0001208DF80F0003A8F4
:100AE000FFF7B8FD7FBD00000008004010B50446C8
:100AF00044B10021064800F036F80121044800F016
:100B00000CF803E00021024800F007F810BD0000D7
:100B100000080040CA430282704721B1028842F0B7
:100B20000102028004E002884FF6FE731A40028040
:100B3000704730B50246002000230024158A05EADC
:100B40000103958905EA010413B10CB1012000E00D
:100B5000002030BD1AB183890B43838102E0838971
:100B60008B43838170478184704700000022028894
:100B70001D4B98420ED01D4B98420BD0B0F1804FC8
:100B800008D01B4B984205D01A4B984202D01A4B02
:100B9000984204D14FF68F731A404B881A43174B73
:100BA000984207D0164B984204D04FF6FF431A40A4
:100BB000CB881A4302808B8883850B8803850A4B78
:100BC00098420BD0094B984208D00E4B984205D062
:100BD0000D4B984202D00D4B984201D10B7A0386FF
:100BE0000123838270470000002C01400034014043
:100BF0000004004000080040000C004000100040CD
:100C00000014004000400140004401400048014001
:100C100010B540F22551174800F058F8012828D1A6
:100C2000144800F00FF9C4B21348007818B12046F8
:100C300000F0E0FB1DE011480088B0F5806F12DA8B
:100C400000210F48FFF78FFF0C48008810B90120E2
:100C5000FFF74CFF094801880088401C074A1080B4
:100C60000848445405E00548008840F40040034922
:100C7000088010BD00380140000000200200002064
:100C8000000800401800002001F40072B2F5007F57
:100C900000D100BFCA430280704721B1828942F46B
:100CA0000052828104E082894DF6FF731A408281EE
:100CB000704702460020B1F5007F00D100BF1388C5
:100CC0000B400BB1012000E00020704770B50246D8
:100CD000002400230025002040F66A16B14200D10E
:100CE00000BFC1F3421501F01F03012606FA03F30A
:100CF000012D02D19689334006E0022D02D1168AD9
:100D0000334001E0968A33400C12012606FA04F4BF
:100D10001688344013B10CB1012000E0002070BDF2
:100D2000F0B50346002400260025002040F66A178F
:100D3000B94200D100BF1846C1F3421401F01F06AA
:100D4000012707FA06F5012C01D10C3004E0022C32
:100D500001D1103000E014301AB107682F4307604A
:100D600002E00768AF430760F0BD00002DE9F047DF
:100D700086B005460E460024A24600BFA1460027C5
:100D8000B08900B100BF2F462C8A4CF6FF7004409A
:100D9000F08804432C82AC894EF6F3100440B088EE
:100DA00031890843718908430443AC81AC8A4FF60A
:100DB000FF400440B0890443AC8201A8FFF7CEFC99
:100DC0001F48874202D1DDF810A001E0DDF80CA039
:100DD000A88900F4004040B10AEBCA0000EB0A10F9
:100DE00031684900B0FBF1F807E00AEBCA0000EBFC
:100DF0000A1031688900B0FBF1F86420B8FBF0F00C
:100E000004012009642101FB1089A88900F4004035
:100E100040B1322000EBC900B0FBF1F000F0070058
:100E2000044308E0322000EB09106421B0FBF1F02C
:100E300000F00F0004432C8106B0BDE8F0870000ED
:100E40000038014001468888C0F308007047C1F3AC
:100E500008028280704700BFFEE7000000B587B03F
:100E600001211D20FFF75AFC01218803FFF736FC02
:100E700001215148FFF79CFB48208DF81B000420FE
:100E8000ADF8180006A94D48FFF706FB48208DF87D
:100E90001B004FF48050ADF8180006A94848FFF732
:100EA000FBFA18208DF81B004FF46040ADF81800D5
:100EB00003208DF81A0006A94048FFF7EDFA4FF419
:100EC00060413E48FFF7BEFB3E48FFF7BDFC0020F7
:100ED000ADF804004FF48270ADF806000020ADF8C4
:100EE0000800ADF80A000120ADF80C004002ADF892
:100EF0000E003820ADF810000020ADF812000720D9
:100F0000ADF8140001A92F48FFF7D8FC4FF4807109
:100F10002C48FFF7F1FC01212A48FFF789FC10203B
:100F20008DF81B004FF47070ADF8180003208DF899
:100F30001A0006A92448FFF7AFFA10208DF81B000D
:100F40000002ADF8180003208DF81A0006A91B480E
:100F5000FFF7A2FA10208DF81B004FF41060ADF8D7
:100F6000180003208DF81A0006A91548FFF794FA17
:100F700040211548FFF766FB4FF400711248FFF758
:100F800061FB4FF480711048FFF75AFB4FF400618A
:100F90000B48FFF757FB4FF480510848FFF752FB0F
:100FA00080210948FFF74EFB4FF480710448FFF79A
:100FB00049FB07B000BD000000023000000C0140FA
:100FC00000080140003800400010014070B50446A0
:100FD00000250948008800F4004058B10020064967
:100FE0000988C1F30E01054A505421461046FFF707
:100FF0000DF90546284670BD0200002018000020AB
:101000002DE9F04106460D461446002700201149FF
:101010000880304600F03CFCC5B1BCB10FE00A20AE
:1010200000F0E1F80B48008800F4004038B1284691
:10103000FFF7CCFF00B106E0002006490880601EE3
:1010400080B2041EEBD100BF04B901273846BDE8C9
:10105000F0810000020000200EB528208DF800006D
:1010600001208DF801008DF802008DF8030068461C
:10107000FFF7F0FA0C210020FFF7EEF94FF4805053
:10108000019000208DF808000C208DF80900012047
:101090008DF80A0001A8FFF795F94FF480720C490A
:1010A000102000F003FC80220A49102000F0FEFB13
:1010B000052000F07CF84FF480710648FFF7C2FA73
:1010C000012000F074F880210248FFF7B9FA0EBD44
:1010D0000008014000100140F8B506460D463346B1
:1010E000052200210220009500F034FB074617B1CD
:1010F0004FF0FF30F8BD05240DE0334605220121F5
:101100002046009500F026FB074617B14FF0FF3050
:10111000F0E7601CC4B20C2CEFDD0020EAE7F8B564
:1011200006460D463346052200210220009500F0B8
:1011300011FB074617B14FF0FF30F8BD05240DE055
:101140003346052200212046009500F003FB0746A8
:1011500017B14FF0FF30F0E7601CC4B20C2CEFDD8C
:101160000020EAE7F8B506460D464FF0FF37334654
:10117000052210210220009500F0ECFA074617B175
:101180004FF0FF30F8BD05240DE03346052211462F
:101190002046009500F0DEFA074617B14FF0FF3009
:1011A000F0E7601CC4B20C2CEFDD0020EAE701463A
:1011B00042F228324A434FF0E0235A6101221A6179
:1011C00000229A6100BF4FF0E022106900F0010296
:1011D0001AB100F48032002AF5D000224FF0E0234B
:1011E0001A619A617047014642F228324A434FF031
:1011F000E0235A6101221A6100229A6100BF4FF078
:10120000E022106900F001021AB100F48032002AD5
:10121000F5D000224FF0E0231A619A617047000078
:10122000FFF7F0FB4FF4612000F0B6FAC82200216E
:1012300035A0FFF7E5FE642234A135A0FFF7E0FEFC
:1012400098B14FF4E13000F0A7FA4FF4FA722FA1F1
:1012500031A0FFF7D5FE4FF47A7237A138A0FFF71F
:10126000CFFE4FF4612000F097FA4FF4FA7232A1EA
:1012700033A0FFF7C5FE4FF4FA7224A133A0FFF7A5
:10128000BFFE4FF4FA6221A134A0FFF7B9FE4FF47C
:10129000FA721EA13CA0FFF7B3FE4FF4FA621BA145
:1012A0003DA0FFF7ADFE4FF4FA7218A144A0FFF77E
:1012B000A7FE4FF4FA7246A146A0FFF7A1FE012057
:1012C00048490870FFF7CAFD80224749002000F016
:1012D00086F94FF480724549012000F080F94FF4FF
:1012E00080514348FFF7ACF96420FFF760FF80218D
:1012F0003D48FFF714FF4FF480713C48FFF70FFFA4
:10130000FFF7AAFE00BFFEE72B2B2B004F4B000080
:1013100041540D0A0000000041542B554152545FC6
:101320004445463D3932313630302C382C312C3062
:101330002C300D0A00000000726561647900000025
:1013400041542B5253540D0A0000000041542B43CA
:10135000574D4F44453D310D0A00000041542B4389
:10136000574A41505F4355523D224841524C6162B9
:101370003630345F3247222C224841524C6162366B
:10138000303421220D0A000041542B4349504D5561
:10139000583D300D0A00000041542B43495053542E
:1013A0004152543D22544350222C223139322E31A5
:1013B00036382E312E3431222C383038310D0A0097
:1013C00041542B4349504D4F44453D310D0A0000D7
:1013D0003E00000041542B43495053454E440D0AF2
:1013E0000000000000000020001001400008014043
:1013F000000C014070B50646072E3CD2DFE806F02F
:10140000CC043C6084A8BA004FF480516348FFF7D5
:1014100019F94FF4FA70FFF7CAFE802260490020E4
:1014200000F0DDF805464FF480725E49012000F0BF
:10143000D6F804464FF480515848FFF701F94FF4AD
:10144000FA70FFF7B4FEFF2000F012FAFF2000F060
:101450000FFA032000F00CFA3DB934B9FF2000F078
:1014600007FAFF2000F004FA05E0EE2000F000FA91
:10147000EE2000F0FDF98FE080214948FFF772FE71
:1014800005464FF480714748FFF76CFE0446FF2085
:1014900000F0EEF9FF2000F0EBF9032000F0E8F98E
:1014A0003DB934B9FF2000F0E3F9FF2000F0E0F986
:1014B00005E0EE2000F0DCF9EE2000F0D9F96BE059
:1014C00080213748FFF708FE05464FF48071354804
:1014D000FFF702FE0446FF2000F0CAF9FF2000F0EB
:1014E000C7F9032000F0C4F93DB934B9FF2000F07A
:1014F000BFF9FF2000F0BCF905E0EE2000F0B8F9DC
:10150000EE2000F0B5F947E080212548FFF707FEFF
:1015100005464FF480712348FFF701FE0446FF2083
:1015200000F0A6F9FF2000F0A3F9032000F0A0F9D5
:101530003DB934B9FF2000F09BF9FF2000F098F985
:1015400005E0EE2000F094F9EE2000F091F923E0A0
:10155000FFF782FDFF2000F08BF9FF2000F088F9F3
:10156000032000F085F9FF2000F082F9FF2000F051
:101570007FF911E000F0D2F8FF2000F079F9FF20A8
:1015800000F076F9032000F073F9FF2000F070F905
:10159000FF2000F06DF900BF00BF70BD000C0140DE
:1015A00000100140000801402DE9F04104460D46BD
:1015B000164631462846FFF743F844F02000FEF770
:1015C00077FE0020FEF774FEFF20FEF771FE07464F
:1015D00031462846FFF736F83846BDE8F0812DE958
:1015E000F84381460F4614464FF0000821E022469A
:1015F0003946112000F05AF90A20FFF7D8FD22469B
:101600003946062000F052F94FF4FA70FFF7CFFD8B
:1016100022463946112000F049F92146384600F0AB
:1016200072F8922800D107E00A20FFF7C0FD08F108
:101630000108B8F1050FDADB00BFB8F1050F03D1DF
:101640004FF0FF30BDE8F8833B460522C021032060
:10165000009400F07FF8054615B14FF0FF30F1E738
:101660006420FFF7A4FDB9F1000F08D13B46052225
:1016700026210120009400F06DF8054607E03B4666
:10168000052206210120009400F064F8054615B1FA
:101690004FF0FF30D6E73B460522002102200094A0
:1016A00000F058F8054615B14FF0FF30CAE705269F
:1016B0000DE03B46052201213046009400F04AF837
:1016C000054615B14FF0FF30BCE7701CC6B20C2EBA
:1016D000EFDD3B460522FF210D20009400F03AF893
:1016E000054615B14FF0FF30ACE73B460522FF2120
:1016F0000E20009400F02EF8054615B14FF0FF3093
:10170000A0E700209EE770B504460D462A46214614
:101710000020FFF749FF0646304670BD10B54FF474
:1017200080710A48FEF78CFF80210848FEF78AFF87
:101730004FF480720649112000F0B8F88022034966
:10174000112000F0B3F8002010BD0000001001408F
:10175000000801402DE9F0478046894614461F469F
:10176000DDF820A000250CE053463A4649464046A5
:1017700000F0AFF8064606B905E00A20FFF717FDAE
:101780006D1CA542F0DB00BFA54203D14FF0FF3036
:10179000BDE8F0870020FBE710B586B004460121C4
:1017A0000420FEF7BBFF01210846FEF7B7FF012129
:1017B0008803FEF7B3FF03208DF816004FF4007086
:1017C000ADF8140018208DF8170005A92648FEF77B
:1017D00063FE4FF48060ADF8140004208DF817000C
:1017E00005A92148FEF758FE01940020ADF8080035
:1017F000ADF80A00ADF80C00ADF810000C20ADF803
:101800000E0001A91948FFF7B1FA4FF4C060FEF7C6
:1018100059FF25208DF8000004208DF801000120DB
:101820008DF802008DF803006846FEF713FF0122D1
:1018300040F225510D48FFF773FA40210B48FFF79E
:1018400023FA20210948FFF71FFA01210748FFF773
:1018500024FA41F61F4140F2E730FFF71BF9002060
:10186000FFF744F906B010BD000801400038014000
:1018700010B5044621460548FFF7E9FA00BF4021AC
:101880000248FFF716FA0128F9D110BD00380140CF
:1018900070B50446002505E029466A1C95B2605CD7
:1018A000FFF7E6FF605D0028F6D170BD70B5064613
:1018B0000C46154629462046FEF7C2FE3046FEF786
:1018C000F7FC0020FEF7F4FC29462046FEF7BAFE9E
:1018D00070BD2DE9F04107460C4615461E463146BF
:1018E0002846FEF7ADFE47F04000FEF7E1FC002081
:1018F000FEF7DEFC2046FEF7DBFC31462846FEF70D
:10190000A1FE0120FFF753FC324629463846FFF777
:101910004BFEA04202D10020BDE8F0814FF0FF3025
:10192000FAE7000044190008000000201800000039
:101930006C0100085C19000818000020600A000013
:1019400088010008000000000000000001020304FC
:0C1950000102030406070809020406084F
:04000005080001CD21
:00000001FF
